{
  "_format": "hh-sol-artifact-1",
  "contractName": "TokenSale",
  "sourceName": "contracts/tokenSale.sol",
  "abi": [
    {
      "inputs": [
        {
          "internalType": "address",
          "name": "_adminAddress",
          "type": "address"
        },
        {
          "internalType": "address",
          "name": "_ethUsdPriceFeed",
          "type": "address"
        },
        {
          "internalType": "address",
          "name": "_usdtUsdPriceFeed",
          "type": "address"
        },
        {
          "internalType": "address",
          "name": "_usdtAddress",
          "type": "address"
        },
        {
          "internalType": "uint256",
          "name": "_minUsdThreshold",
          "type": "uint256"
        },
        {
          "internalType": "uint256",
          "name": "_maxTokenToSell",
          "type": "uint256"
        },
        {
          "internalType": "uint256",
          "name": "_usdtDecimals",
          "type": "uint256"
        }
      ],
      "stateMutability": "nonpayable",
      "type": "constructor"
    },
    {
      "inputs": [
        {
          "internalType": "address",
          "name": "target",
          "type": "address"
        }
      ],
      "name": "AddressEmptyCode",
      "type": "error"
    },
    {
      "inputs": [
        {
          "internalType": "address",
          "name": "account",
          "type": "address"
        }
      ],
      "name": "AddressInsufficientBalance",
      "type": "error"
    },
    {
      "inputs": [],
      "name": "ExceededTokenMaxAmount",
      "type": "error"
    },
    {
      "inputs": [],
      "name": "FailedInnerCall",
      "type": "error"
    },
    {
      "inputs": [
        {
          "internalType": "uint256",
          "name": "transfered",
          "type": "uint256"
        },
        {
          "internalType": "uint256",
          "name": "requiredMinimum",
          "type": "uint256"
        }
      ],
      "name": "InsufficientUsdAmount",
      "type": "error"
    },
    {
      "inputs": [
        {
          "internalType": "address",
          "name": "owner",
          "type": "address"
        }
      ],
      "name": "OwnableInvalidOwner",
      "type": "error"
    },
    {
      "inputs": [
        {
          "internalType": "address",
          "name": "account",
          "type": "address"
        }
      ],
      "name": "OwnableUnauthorizedAccount",
      "type": "error"
    },
    {
      "inputs": [],
      "name": "RoundIsNotInProgress",
      "type": "error"
    },
    {
      "inputs": [
        {
          "internalType": "address",
          "name": "token",
          "type": "address"
        }
      ],
      "name": "SafeERC20FailedOperation",
      "type": "error"
    },
    {
      "anonymous": false,
      "inputs": [
        {
          "indexed": true,
          "internalType": "address",
          "name": "tokenUserAddress",
          "type": "address"
        },
        {
          "indexed": true,
          "internalType": "uint256",
          "name": "amount",
          "type": "uint256"
        }
      ],
      "name": "Buy",
      "type": "event"
    },
    {
      "anonymous": false,
      "inputs": [
        {
          "indexed": true,
          "internalType": "address",
          "name": "previousOwner",
          "type": "address"
        },
        {
          "indexed": true,
          "internalType": "address",
          "name": "newOwner",
          "type": "address"
        }
      ],
      "name": "OwnershipTransferred",
      "type": "event"
    },
    {
      "inputs": [],
      "name": "adminAddress",
      "outputs": [
        {
          "internalType": "address",
          "name": "",
          "type": "address"
        }
      ],
      "stateMutability": "view",
      "type": "function"
    },
    {
      "inputs": [
        {
          "internalType": "address",
          "name": "_userTokenAddress",
          "type": "address"
        },
        {
          "internalType": "uint256",
          "name": "_usdtAmount",
          "type": "uint256"
        }
      ],
      "name": "buyTokens",
      "outputs": [],
      "stateMutability": "nonpayable",
      "type": "function"
    },
    {
      "inputs": [
        {
          "internalType": "address",
          "name": "_userTokenAddress",
          "type": "address"
        }
      ],
      "name": "buyTokens",
      "outputs": [],
      "stateMutability": "payable",
      "type": "function"
    },
    {
      "inputs": [],
      "name": "currentRound",
      "outputs": [
        {
          "internalType": "uint256",
          "name": "",
          "type": "uint256"
        }
      ],
      "stateMutability": "view",
      "type": "function"
    },
    {
      "inputs": [],
      "name": "currentRoundEndTime",
      "outputs": [
        {
          "internalType": "uint256",
          "name": "",
          "type": "uint256"
        }
      ],
      "stateMutability": "view",
      "type": "function"
    },
    {
      "inputs": [],
      "name": "ethUsdPriceFeed",
      "outputs": [
        {
          "internalType": "address",
          "name": "",
          "type": "address"
        }
      ],
      "stateMutability": "view",
      "type": "function"
    },
    {
      "inputs": [
        {
          "internalType": "address",
          "name": "_priceFeed",
          "type": "address"
        }
      ],
      "name": "getCurrency",
      "outputs": [
        {
          "internalType": "int256",
          "name": "",
          "type": "int256"
        }
      ],
      "stateMutability": "view",
      "type": "function"
    },
    {
      "inputs": [
        {
          "internalType": "uint256",
          "name": "",
          "type": "uint256"
        }
      ],
      "name": "isRoundInProgress",
      "outputs": [
        {
          "internalType": "bool",
          "name": "",
          "type": "bool"
        }
      ],
      "stateMutability": "view",
      "type": "function"
    },
    {
      "inputs": [
        {
          "internalType": "address",
          "name": "_newAdminAddress",
          "type": "address"
        }
      ],
      "name": "manageAdminAddress",
      "outputs": [],
      "stateMutability": "nonpayable",
      "type": "function"
    },
    {
      "inputs": [
        {
          "internalType": "address",
          "name": "_newEthUsdPriceFeed",
          "type": "address"
        }
      ],
      "name": "manageEthUsdPriceFeed",
      "outputs": [],
      "stateMutability": "nonpayable",
      "type": "function"
    },
    {
      "inputs": [
        {
          "internalType": "uint256",
          "name": "_newAmount",
          "type": "uint256"
        }
      ],
      "name": "manageMaxTokenToSell",
      "outputs": [],
      "stateMutability": "nonpayable",
      "type": "function"
    },
    {
      "inputs": [
        {
          "internalType": "uint256",
          "name": "_newUsdThreshold",
          "type": "uint256"
        }
      ],
      "name": "manageMinUsdThreshold",
      "outputs": [],
      "stateMutability": "nonpayable",
      "type": "function"
    },
    {
      "inputs": [
        {
          "internalType": "address",
          "name": "_newUsdtAddress",
          "type": "address"
        }
      ],
      "name": "manageUsdtAddress",
      "outputs": [],
      "stateMutability": "nonpayable",
      "type": "function"
    },
    {
      "inputs": [
        {
          "internalType": "address",
          "name": "_newUsdtUsdPriceFeed",
          "type": "address"
        }
      ],
      "name": "manageUsdtUsdPriceFeed",
      "outputs": [],
      "stateMutability": "nonpayable",
      "type": "function"
    },
    {
      "inputs": [],
      "name": "maxTokenToSell",
      "outputs": [
        {
          "internalType": "uint256",
          "name": "",
          "type": "uint256"
        }
      ],
      "stateMutability": "view",
      "type": "function"
    },
    {
      "inputs": [],
      "name": "minUsdThreshold",
      "outputs": [
        {
          "internalType": "uint256",
          "name": "",
          "type": "uint256"
        }
      ],
      "stateMutability": "view",
      "type": "function"
    },
    {
      "inputs": [
        {
          "internalType": "uint256",
          "name": "_newRoundPrice",
          "type": "uint256"
        },
        {
          "internalType": "uint256",
          "name": "_roundEndTime",
          "type": "uint256"
        }
      ],
      "name": "newRound",
      "outputs": [],
      "stateMutability": "nonpayable",
      "type": "function"
    },
    {
      "inputs": [],
      "name": "owner",
      "outputs": [
        {
          "internalType": "address",
          "name": "",
          "type": "address"
        }
      ],
      "stateMutability": "view",
      "type": "function"
    },
    {
      "inputs": [],
      "name": "renounceOwnership",
      "outputs": [],
      "stateMutability": "nonpayable",
      "type": "function"
    },
    {
      "inputs": [
        {
          "internalType": "uint256",
          "name": "",
          "type": "uint256"
        }
      ],
      "name": "roundPrice",
      "outputs": [
        {
          "internalType": "uint256",
          "name": "",
          "type": "uint256"
        }
      ],
      "stateMutability": "view",
      "type": "function"
    },
    {
      "inputs": [],
      "name": "stopRound",
      "outputs": [],
      "stateMutability": "nonpayable",
      "type": "function"
    },
    {
      "inputs": [
        {
          "internalType": "address",
          "name": "",
          "type": "address"
        }
      ],
      "name": "tokenBalances",
      "outputs": [
        {
          "internalType": "uint256",
          "name": "",
          "type": "uint256"
        }
      ],
      "stateMutability": "view",
      "type": "function"
    },
    {
      "inputs": [],
      "name": "totalTokenSold",
      "outputs": [
        {
          "internalType": "uint256",
          "name": "",
          "type": "uint256"
        }
      ],
      "stateMutability": "view",
      "type": "function"
    },
    {
      "inputs": [],
      "name": "totalUsdAmount",
      "outputs": [
        {
          "internalType": "uint256",
          "name": "",
          "type": "uint256"
        }
      ],
      "stateMutability": "view",
      "type": "function"
    },
    {
      "inputs": [
        {
          "internalType": "address",
          "name": "newOwner",
          "type": "address"
        }
      ],
      "name": "transferOwnership",
      "outputs": [],
      "stateMutability": "nonpayable",
      "type": "function"
    },
    {
      "inputs": [],
      "name": "usdtAddress",
      "outputs": [
        {
          "internalType": "address",
          "name": "",
          "type": "address"
        }
      ],
      "stateMutability": "view",
      "type": "function"
    },
    {
      "inputs": [],
      "name": "usdtDecimals",
      "outputs": [
        {
          "internalType": "uint256",
          "name": "",
          "type": "uint256"
        }
      ],
      "stateMutability": "view",
      "type": "function"
    },
    {
      "inputs": [],
      "name": "usdtUsdPriceFeed",
      "outputs": [
        {
          "internalType": "address",
          "name": "",
          "type": "address"
        }
      ],
      "stateMutability": "view",
      "type": "function"
    },
    {
      "inputs": [
        {
          "internalType": "address",
          "name": "_address",
          "type": "address"
        }
      ],
      "name": "viewUserBalance",
      "outputs": [
        {
          "internalType": "uint256",
          "name": "",
          "type": "uint256"
        }
      ],
      "stateMutability": "view",
      "type": "function"
    },
    {
      "inputs": [
        {
          "internalType": "uint256",
          "name": "_usdAmount",
          "type": "uint256"
        },
        {
          "internalType": "bool",
          "name": "_inEth",
          "type": "bool"
        }
      ],
      "name": "withdrawOwner",
      "outputs": [],
      "stateMutability": "nonpayable",
      "type": "function"
    }
  ],
  "bytecode": "0x60806040523480156200001157600080fd5b506040516200125f3803806200125f83398101604081905262000034916200013a565b33806200005b57604051631e4fbdf760e01b81526000600482015260240160405180910390fd5b6200006681620000cd565b50600480546001600160a01b039889166001600160a01b0319918216179091556005805497891697821697909717909655600680549588169587169590951790945560078054939096169290941691909117909355600a92909255600c55600e55620001b4565b600080546001600160a01b038381166001600160a01b0319831681178455604051919092169283917f8be0079c531659141344cd1fd0a4f28419497f9722a3daafe3b4186f6b6457e09190a35050565b80516001600160a01b03811681146200013557600080fd5b919050565b600080600080600080600060e0888a0312156200015657600080fd5b62000161886200011d565b965062000171602089016200011d565b955062000181604089016200011d565b945062000191606089016200011d565b93506080880151925060a0880151915060c0880151905092959891949750929550565b61109b80620001c46000396000f3fe6080604052600436106101cd5760003560e01c806383144e21116100f7578063b5f7f63611610095578063e643db4711610064578063e643db471461053b578063ec8ac4d814610551578063f2fde38b14610564578063fc6f94681461058457600080fd5b8063b5f7f636146104d9578063bc0edcad146104ef578063d2d5cc6214610505578063dfa141631461051b57600080fd5b80639a3ed70b116100d15780639a3ed70b146104435780639ab4a445146104635780639dd80efc14610483578063ad19f196146104a357600080fd5b806383144e21146103ef5780638a19c8bc1461040f5780638da5cb5b1461042557600080fd5b806355b895eb1161016f57806365f025a41161013e57806365f025a414610364578063715018a6146103a45780637d220f6a146103b957806382543b32146103d957600080fd5b806355b895eb146102e2578063581a7515146102f75780635d7b1cc914610317578063639a77bf1461034457600080fd5b80633428b9a2116101ab5780633428b9a21461023d57806342f6fb291461025d578063523fba7f1461029557806354681847146102c257600080fd5b80630752881a146101d257806309c661f4146101f45780630c4dd1d914610214575b600080fd5b3480156101de57600080fd5b506101f26101ed366004610e76565b6105a4565b005b34801561020057600080fd5b506101f261020f366004610ea0565b61067d565b34801561022057600080fd5b5061022a600d5481565b6040519081526020015b60405180910390f35b34801561024957600080fd5b506101f2610258366004610ea0565b61068a565b34801561026957600080fd5b5060055461027d906001600160a01b031681565b6040516001600160a01b039091168152602001610234565b3480156102a157600080fd5b5061022a6102b0366004610eb9565b60016020526000908152604090205481565b3480156102ce57600080fd5b506101f26102dd366004610ed4565b610697565b3480156102ee57600080fd5b506101f26106ea565b34801561030357600080fd5b506101f2610312366004610eb9565b61074c565b34801561032357600080fd5b5061022a610332366004610ea0565b60026020526000908152604090205481565b34801561035057600080fd5b506101f261035f366004610eb9565b610776565b34801561037057600080fd5b5061039461037f366004610ea0565b60036020526000908152604090205460ff1681565b6040519015158152602001610234565b3480156103b057600080fd5b506101f26107a0565b3480156103c557600080fd5b506101f26103d4366004610eb9565b6107b4565b3480156103e557600080fd5b5061022a600e5481565b3480156103fb57600080fd5b506101f261040a366004610eb9565b6107de565b34801561041b57600080fd5b5061022a60085481565b34801561043157600080fd5b506000546001600160a01b031661027d565b34801561044f57600080fd5b5060065461027d906001600160a01b031681565b34801561046f57600080fd5b5060075461027d906001600160a01b031681565b34801561048f57600080fd5b506101f261049e366004610f04565b610808565b3480156104af57600080fd5b5061022a6104be366004610eb9565b6001600160a01b031660009081526001602052604090205490565b3480156104e557600080fd5b5061022a600b5481565b3480156104fb57600080fd5b5061022a600c5481565b34801561051157600080fd5b5061022a600a5481565b34801561052757600080fd5b5061022a610536366004610eb9565b61082d565b34801561054757600080fd5b5061022a60095481565b6101f261055f366004610eb9565b6108a4565b34801561057057600080fd5b506101f261057f366004610eb9565b61093b565b34801561059057600080fd5b5060045461027d906001600160a01b031681565b600954421080156105c6575060085460009081526003602052604090205460ff165b6105e357604051633ed353f560e21b815260040160405180910390fd5b600e5460006006829003610607576106008364e8d4a51000610f4a565b905061060a565b50815b600754610622906001600160a01b031633308661097e565b60065460009061063d9086906001600160a01b0316846109eb565b905080856001600160a01b03167fe3d4187f6ca4248660cc0ac8b8056515bac4a8132be2eca31d6d0cc170722a7e60405160405180910390a35050505050565b610685610b02565b600c55565b610692610b02565b600a55565b61069f610b02565b600880549060006106af83610f61565b90915550506008805460009081526002602090815260408083209590955560099390935590548152600390915220805460ff19166001179055565b6106f2610b02565b60095442108015610714575060085460009081526003602052604090205460ff165b61073157604051633ed353f560e21b815260040160405180910390fd5b6008546000908152600360205260409020805460ff19169055565b610754610b02565b600580546001600160a01b0319166001600160a01b0392909216919091179055565b61077e610b02565b600780546001600160a01b0319166001600160a01b0392909216919091179055565b6107a8610b02565b6107b26000610b2f565b565b6107bc610b02565b600480546001600160a01b0319166001600160a01b0392909216919091179055565b6107e6610b02565b600680546001600160a01b0319166001600160a01b0392909216919091179055565b610810610b02565b60045461082990839083906001600160a01b0316610b7f565b5050565b6000808290506000816001600160a01b031663feaf968c6040518163ffffffff1660e01b815260040160a060405180830381865afa158015610873573d6000803e3d6000fd5b505050506040513d601f19601f820116820180604052508101906108979190610f94565b5091979650505050505050565b600954421080156108c6575060085460009081526003602052604090205460ff165b6108e357604051633ed353f560e21b815260040160405180910390fd5b6005546000906108fe9083906001600160a01b0316346109eb565b905080826001600160a01b03167fe3d4187f6ca4248660cc0ac8b8056515bac4a8132be2eca31d6d0cc170722a7e60405160405180910390a35050565b610943610b02565b6001600160a01b03811661097257604051631e4fbdf760e01b8152600060048201526024015b60405180910390fd5b61097b81610b2f565b50565b6040516001600160a01b0384811660248301528381166044830152606482018390526109e59186918216906323b872dd906084015b604051602081830303815290604052915060e01b6020820180516001600160e01b038381831617835250505050610c88565b50505050565b6000806109f78461082d565b90506000610a058483610f4a565b9050600a54811015610a3857600a54604051636cf6293360e01b8152610969918391600401918252602082015260400190565b600854600090815260026020526040812054610a5c83670de0b6b3a7640000610f4a565b610a669190610fe4565b9050600c5481600b54610a799190611006565b1115610a9857604051636cc9887f60e01b815260040160405180910390fd5b81600d6000828254610aaa9190611006565b9250508190555080600b6000828254610ac39190611006565b90915550506001600160a01b03871660009081526001602052604081208054839290610af0908490611006565b909155509093505050505b9392505050565b6000546001600160a01b031633146107b25760405163118cdaa760e01b8152336004820152602401610969565b600080546001600160a01b038381166001600160a01b0319831681178455604051919092169283917f8be0079c531659141344cd1fd0a4f28419497f9722a3daafe3b4186f6b6457e09190a35050565b60008215610c0057600554610b9c906001600160a01b031661082d565b9050600081610bb6866a52b7d2dcc80cd2e4000000610f4a565b610bc09190610fe4565b6040519091506001600160a01b0384169082156108fc029083906000818181858888f19350505050158015610bf9573d6000803e3d6000fd5b50506109e5565b600e54600654610c18906001600160a01b031661082d565b9150600081600603610c465782610c3587655af3107a4000610f4a565b610c3f9190610fe4565b9050610c69565b82610c5c876a52b7d2dcc80cd2e4000000610f4a565b610c669190610fe4565b90505b600754610c80906001600160a01b03168583610cf0565b505050505050565b6000610c9d6001600160a01b03841683610d21565b90508051600014158015610cc2575080806020019051810190610cc09190611019565b155b15610ceb57604051635274afe760e01b81526001600160a01b0384166004820152602401610969565b505050565b6040516001600160a01b03838116602483015260448201839052610ceb91859182169063a9059cbb906064016109b3565b6060610d2f83836000610d38565b90505b92915050565b606081471015610d5d5760405163cd78605960e01b8152306004820152602401610969565b600080856001600160a01b03168486604051610d799190611036565b60006040518083038185875af1925050503d8060008114610db6576040519150601f19603f3d011682016040523d82523d6000602084013e610dbb565b606091505b5091509150610dcb868383610dd5565b9695505050505050565b606082610dea57610de582610e31565b610afb565b8151158015610e0157506001600160a01b0384163b155b15610e2a57604051639996b31560e01b81526001600160a01b0385166004820152602401610969565b5080610afb565b805115610e415780518082602001fd5b604051630a12f52160e11b815260040160405180910390fd5b80356001600160a01b0381168114610e7157600080fd5b919050565b60008060408385031215610e8957600080fd5b610e9283610e5a565b946020939093013593505050565b600060208284031215610eb257600080fd5b5035919050565b600060208284031215610ecb57600080fd5b610d2f82610e5a565b60008060408385031215610ee757600080fd5b50508035926020909101359150565b801515811461097b57600080fd5b60008060408385031215610f1757600080fd5b823591506020830135610f2981610ef6565b809150509250929050565b634e487b7160e01b600052601160045260246000fd5b8082028115828204841417610d3257610d32610f34565b600060018201610f7357610f73610f34565b5060010190565b805169ffffffffffffffffffff81168114610e7157600080fd5b600080600080600060a08688031215610fac57600080fd5b610fb586610f7a565b9450602086015193506040860151925060608601519150610fd860808701610f7a565b90509295509295909350565b60008261100157634e487b7160e01b600052601260045260246000fd5b500490565b80820180821115610d3257610d32610f34565b60006020828403121561102b57600080fd5b8151610afb81610ef6565b6000825160005b81811015611057576020818601810151858301520161103d565b50600092019182525091905056fea26469706673582212206c0c0e8262147d98cfeeba04f36dc0bfddd7bd8a0fee4bcbc58796055c2b9f9064736f6c63430008180033",
  "linkReferences": {},
  "deployedLinkReferences": {}
}